{
  "contractName": "MyContract",
  "abi": [
    {
      "inputs": [
        {
          "internalType": "contract IAddressResolver",
          "name": "_snxResolver",
          "type": "address"
        }
      ],
      "payable": false,
      "stateMutability": "nonpayable",
      "type": "constructor"
    },
    {
      "constant": true,
      "inputs": [],
      "name": "synthetixResolver",
      "outputs": [
        {
          "internalType": "contract IAddressResolver",
          "name": "",
          "type": "address"
        }
      ],
      "payable": false,
      "stateMutability": "view",
      "type": "function"
    },
    {
      "constant": false,
      "inputs": [],
      "name": "synthetixIssue",
      "outputs": [],
      "payable": false,
      "stateMutability": "nonpayable",
      "type": "function"
    },
    {
      "constant": false,
      "inputs": [
        {
          "internalType": "address",
          "name": "user",
          "type": "address"
        }
      ],
      "name": "synthetixIssueOnBehalf",
      "outputs": [],
      "payable": false,
      "stateMutability": "nonpayable",
      "type": "function"
    }
  ],
  "bytecode": "0x608060405234801561001057600080fd5b506040516105a43803806105a48339818101604052602081101561003357600080fd5b8101908080519060200190929190505050806000806101000a81548173ffffffffffffffffffffffffffffffffffffffff021916908373ffffffffffffffffffffffffffffffffffffffff16021790555050610510806100946000396000f3fe608060405234801561001057600080fd5b50600436106100415760003560e01c8063153cd7161461004657806341693bb414610090578063cf5d06271461009a575b600080fd5b61004e6100de565b604051808273ffffffffffffffffffffffffffffffffffffffff1673ffffffffffffffffffffffffffffffffffffffff16815260200191505060405180910390f35b610098610103565b005b6100dc600480360360208110156100b057600080fd5b81019080803573ffffffffffffffffffffffffffffffffffffffff1690602001909291905050506102bd565b005b6000809054906101000a900473ffffffffffffffffffffffffffffffffffffffff1681565b60008060009054906101000a900473ffffffffffffffffffffffffffffffffffffffff1673ffffffffffffffffffffffffffffffffffffffff166321f8a7216040518163ffffffff1660e01b815260040180807f53796e7468657469780000000000000000000000000000000000000000000000815250602001905060206040518083038186803b15801561019757600080fd5b505afa1580156101ab573d6000803e3d6000fd5b505050506040513d60208110156101c157600080fd5b81019080805190602001909291905050509050600073ffffffffffffffffffffffffffffffffffffffff168173ffffffffffffffffffffffffffffffffffffffff16141561025a576040517f08c379a000000000000000000000000000000000000000000000000000000000815260040180806020018281038252602c8152602001806104b0602c913960400191505060405180910390fd5b8073ffffffffffffffffffffffffffffffffffffffff1663af086c7e6040518163ffffffff1660e01b8152600401600060405180830381600087803b1580156102a257600080fd5b505af11580156102b6573d6000803e3d6000fd5b5050505050565b60008060009054906101000a900473ffffffffffffffffffffffffffffffffffffffff1673ffffffffffffffffffffffffffffffffffffffff166321f8a7216040518163ffffffff1660e01b815260040180807f53796e7468657469780000000000000000000000000000000000000000000000815250602001905060206040518083038186803b15801561035157600080fd5b505afa158015610365573d6000803e3d6000fd5b505050506040513d602081101561037b57600080fd5b81019080805190602001909291905050509050600073ffffffffffffffffffffffffffffffffffffffff168173ffffffffffffffffffffffffffffffffffffffff161415610414576040517f08c379a000000000000000000000000000000000000000000000000000000000815260040180806020018281038252602c8152602001806104b0602c913960400191505060405180910390fd5b8073ffffffffffffffffffffffffffffffffffffffff1663320223db836040518263ffffffff1660e01b8152600401808273ffffffffffffffffffffffffffffffffffffffff1673ffffffffffffffffffffffffffffffffffffffff168152602001915050600060405180830381600087803b15801561049357600080fd5b505af11580156104a7573d6000803e3d6000fd5b50505050505056fe53796e746865746978206973206d697373696e672066726f6d2053796e746865746978207265736f6c766572a265627a7a7231582031484154f7eabbb237519accebc90377c7a80269a39fd10610579a8a287bc3b564736f6c63430005100032",
  "source": "// SPDX-License-Identifier: MIT\n\npragma solidity >=0.5.16;\n\nimport 'synthetix/contracts/interfaces/IAddressResolver.sol';\nimport 'synthetix/contracts/interfaces/ISynthetix.sol';\n\n\ncontract MyContract {\n  // This should be instantiated with our ReadProxyAddressResolver\n  // it's a ReadProxy that won't change, so safe to code it here without a setter\n  // see https://docs.synthetix.io/addresses for addresses in mainnet and testnets\n  IAddressResolver public synthetixResolver;\n\n  constructor(IAddressResolver _snxResolver) public {\n    synthetixResolver = _snxResolver;\n  }\n\n  function synthetixIssue() external {\n    ISynthetix synthetix = ISynthetix(synthetixResolver.getAddress('Synthetix'));\n    require(address(synthetix) != address(0), 'Synthetix is missing from Synthetix resolver');\n\n    // Issue for msg.sender = address(MyContract)\n    synthetix.issueMaxSynths();\n  }\n\n  function synthetixIssueOnBehalf(address user) external {\n    ISynthetix synthetix = ISynthetix(synthetixResolver.getAddress('Synthetix'));\n    require(address(synthetix) != address(0), 'Synthetix is missing from Synthetix resolver');\n\n    // Note: this will fail if `DelegateApprovals.approveIssueOnBehalf(address(MyContract))` has\n    // not yet been invoked by the `user`\n    synthetix.issueMaxSynthsOnBehalf(user);\n  }\n}",
  "sourcePath": "/Users/andres/itba/contracts/TestContract.sol",
  "compiler": {
    "name": "solc",
    "version": "0.5.16+commit.9c3226ce.Emscripten.clang"
  },
  "schemaVersion": "3.3.2",
  "updatedAt": "2020-11-17T15:22:21.551Z",
  "devdoc": {
    "methods": {}
  },
  "userdoc": {
    "methods": {}
  }
}