{
  "contractName": "SynthBuyer",
  "abi": [
    {
      "inputs": [],
      "stateMutability": "nonpayable",
      "type": "constructor"
    },
    {
      "anonymous": false,
      "inputs": [
        {
          "indexed": false,
          "internalType": "address",
          "name": "user",
          "type": "address"
        },
        {
          "indexed": false,
          "internalType": "uint256",
          "name": "snx",
          "type": "uint256"
        }
      ],
      "name": "Buy",
      "type": "event"
    },
    {
      "inputs": [],
      "name": "synthetixResolver",
      "outputs": [
        {
          "internalType": "contract IAddressResolver",
          "name": "",
          "type": "address"
        }
      ],
      "stateMutability": "view",
      "type": "function",
      "constant": true
    },
    {
      "inputs": [
        {
          "internalType": "uint256",
          "name": "etherAmount",
          "type": "uint256"
        }
      ],
      "name": "buySNX",
      "outputs": [
        {
          "internalType": "uint256",
          "name": "amount",
          "type": "uint256"
        }
      ],
      "stateMutability": "payable",
      "type": "function",
      "payable": true
    },
    {
      "inputs": [],
      "name": "getBalance",
      "outputs": [
        {
          "internalType": "uint256",
          "name": "balance",
          "type": "uint256"
        }
      ],
      "stateMutability": "view",
      "type": "function",
      "constant": true
    }
  ],
  "bytecode": "0x608060405234801561001057600080fd5b5073c6f404c96aa136b0ba11d40db17394f09b0f20f16000806101000a81548173ffffffffffffffffffffffffffffffffffffffff021916908373ffffffffffffffffffffffffffffffffffffffff160217905550610493806100746000396000f3fe6080604052600436106100345760003560e01c806312065fe014610039578063153cd71614610064578063ead8f245146100a5575b600080fd5b34801561004557600080fd5b5061004e6100e7565b6040518082815260200191505060405180910390f35b34801561007057600080fd5b5061007961012e565b604051808273ffffffffffffffffffffffffffffffffffffffff16815260200191505060405180910390f35b6100d1600480360360208110156100bb57600080fd5b8101908080359060200190929190505050610152565b6040518082815260200191505060405180910390f35b6000600160003373ffffffffffffffffffffffffffffffffffffffff1673ffffffffffffffffffffffffffffffffffffffff16815260200190815260200160002054905090565b60008054906101000a900473ffffffffffffffffffffffffffffffffffffffff1681565b60008060008054906101000a900473ffffffffffffffffffffffffffffffffffffffff1673ffffffffffffffffffffffffffffffffffffffff166321f8a7216040518163ffffffff1660e01b815260040180807f4465706f74000000000000000000000000000000000000000000000000000000815250602001905060206040518083038186803b1580156101e657600080fd5b505afa1580156101fa573d6000803e3d6000fd5b505050506040513d602081101561021057600080fd5b81019080805190602001909291905050509050600073ffffffffffffffffffffffffffffffffffffffff168173ffffffffffffffffffffffffffffffffffffffff1614156102a9576040517f08c379a00000000000000000000000000000000000000000000000000000000081526004018080602001828103825260288152602001806104366028913960400191505060405180910390fd5b82341161031e576040517f08c379a000000000000000000000000000000000000000000000000000000000815260040180806020018281038252601b8152602001807f496e73756666696369656e742076616c75652070726f7669646564000000000081525060200191505060405180910390fd5b60008173ffffffffffffffffffffffffffffffffffffffff166302279438856040518263ffffffff1660e01b81526004016020604051808303818588803b15801561036857600080fd5b505af115801561037c573d6000803e3d6000fd5b50505050506040513d602081101561039357600080fd5b8101908080519060200190929190505050905080600160003373ffffffffffffffffffffffffffffffffffffffff1673ffffffffffffffffffffffffffffffffffffffff1681526020019081526020016000205401600160003373ffffffffffffffffffffffffffffffffffffffff1673ffffffffffffffffffffffffffffffffffffffff16815260200190815260200160002081905550809250505091905056fe4465706f74206973206d697373696e672066726f6d2053796e746865746978207265736f6c766572a264697066735822122081fd87ea651b9bbb1a36d7dfbd0ca2b6791e072ae0f14bb4283bc98fc4a4994764736f6c63430007040033",
  "immutableReferences": {},
  "source": "// SPDX-License-Identifier: MIT\n\npragma solidity >=0.5.16;\n\nimport 'synthetix/contracts/interfaces/IAddressResolver.sol';\nimport \"synthetix/contracts/interfaces/IDepot.sol\";\n\ncontract SynthBuyer {\n  // This should be instantiated with our ReadProxyAddressResolver\n  // it's a ReadProxy that won't change, so safe to code it here without a setter\n  // see https://docs.synthetix.io/addresses for addresses in mainnet and testnets\n  IAddressResolver public synthetixResolver;\n\n  mapping(address => uint256) private balances;\n\n  event Buy(address user, uint256 snx);\n\n  constructor() public {\n    synthetixResolver = IAddressResolver(address(0xc6F404c96Aa136b0Ba11d40dB17394F09B0f20F1));\n  }\n\n  function buySNX(uint256 etherAmount) payable public returns (uint256 amount)  {\n    IDepot depot = IDepot(synthetixResolver.getAddress(\"Depot\"));\n    require(address(depot) != address(0), \"Depot is missing from Synthetix resolver\");\n\n    require(msg.value > etherAmount, \"Insufficient value provided\");\n\n    uint256 snx = depot.exchangeEtherForSNX{value: etherAmount}();\n\n    balances[msg.sender] = balances[msg.sender] + snx;\n\n    return snx;\n  }\n\n  function getBalance() public view returns (uint256 balance) {\n    return balances[msg.sender];\n  }\n\n}",
  "sourcePath": "/Users/andres/itba/contracts/SynthBuyer.sol",
  "compiler": {
    "name": "solc",
    "version": "0.7.4+commit.3f05b770.Emscripten.clang"
  },
  "schemaVersion": "3.3.2",
  "updatedAt": "2020-11-17T18:03:55.567Z",
  "networkType": "ethereum",
  "devdoc": {
    "kind": "dev",
    "methods": {},
    "version": 1
  },
  "userdoc": {
    "kind": "user",
    "methods": {},
    "version": 1
  }
}